{
  "abi": [
    {
      "type": "constructor",
      "inputs": [],
      "stateMutability": "nonpayable"
    },
    {
      "type": "function",
      "name": "certificates",
      "inputs": [
        {
          "name": "",
          "type": "string",
          "internalType": "string"
        }
      ],
      "outputs": [
        {
          "name": "file",
          "type": "string",
          "internalType": "string"
        },
        {
          "name": "fileType",
          "type": "string",
          "internalType": "string"
        },
        {
          "name": "graduateAddress",
          "type": "address",
          "internalType": "address"
        },
        {
          "name": "isValid",
          "type": "bool",
          "internalType": "bool"
        }
      ],
      "stateMutability": "view"
    },
    {
      "type": "function",
      "name": "certificatesByIssuer",
      "inputs": [
        {
          "name": "",
          "type": "address",
          "internalType": "address"
        },
        {
          "name": "",
          "type": "uint256",
          "internalType": "uint256"
        }
      ],
      "outputs": [
        {
          "name": "",
          "type": "string",
          "internalType": "string"
        }
      ],
      "stateMutability": "view"
    },
    {
      "type": "function",
      "name": "getAllRegulators",
      "inputs": [],
      "outputs": [
        {
          "name": "",
          "type": "tuple[]",
          "internalType": "struct DigitalCertificates.User[]",
          "components": [
            {
              "name": "name",
              "type": "string",
              "internalType": "string"
            },
            {
              "name": "userAddress",
              "type": "address",
              "internalType": "address"
            },
            {
              "name": "role",
              "type": "uint8",
              "internalType": "enum DigitalCertificates.UserRole"
            },
            {
              "name": "isSuspended",
              "type": "bool",
              "internalType": "bool"
            }
          ]
        }
      ],
      "stateMutability": "view"
    },
    {
      "type": "function",
      "name": "getCertificateByGraduateAddress",
      "inputs": [
        {
          "name": "_graduateAddress",
          "type": "address",
          "internalType": "address"
        }
      ],
      "outputs": [
        {
          "name": "",
          "type": "tuple[]",
          "internalType": "struct DigitalCertificates.Certificate[]",
          "components": [
            {
              "name": "file",
              "type": "string",
              "internalType": "string"
            },
            {
              "name": "fileType",
              "type": "string",
              "internalType": "string"
            },
            {
              "name": "graduateAddress",
              "type": "address",
              "internalType": "address"
            },
            {
              "name": "isValid",
              "type": "bool",
              "internalType": "bool"
            }
          ]
        }
      ],
      "stateMutability": "view"
    },
    {
      "type": "function",
      "name": "getCertificatesByIssuer",
      "inputs": [
        {
          "name": "_issuer",
          "type": "address",
          "internalType": "address"
        }
      ],
      "outputs": [
        {
          "name": "",
          "type": "tuple[]",
          "internalType": "struct DigitalCertificates.Certificate[]",
          "components": [
            {
              "name": "file",
              "type": "string",
              "internalType": "string"
            },
            {
              "name": "fileType",
              "type": "string",
              "internalType": "string"
            },
            {
              "name": "graduateAddress",
              "type": "address",
              "internalType": "address"
            },
            {
              "name": "isValid",
              "type": "bool",
              "internalType": "bool"
            }
          ]
        }
      ],
      "stateMutability": "view"
    },
    {
      "type": "function",
      "name": "getIssuerByAddress",
      "inputs": [
        {
          "name": "_issuer",
          "type": "address",
          "internalType": "address"
        }
      ],
      "outputs": [
        {
          "name": "name",
          "type": "string",
          "internalType": "string"
        },
        {
          "name": "issuer",
          "type": "address",
          "internalType": "address"
        },
        {
          "name": "role",
          "type": "uint8",
          "internalType": "enum DigitalCertificates.UserRole"
        },
        {
          "name": "isSuspended",
          "type": "bool",
          "internalType": "bool"
        }
      ],
      "stateMutability": "view"
    },
    {
      "type": "function",
      "name": "getIssuersByRegulator",
      "inputs": [
        {
          "name": "_regulator",
          "type": "address",
          "internalType": "address"
        }
      ],
      "outputs": [
        {
          "name": "",
          "type": "tuple[]",
          "internalType": "struct DigitalCertificates.User[]",
          "components": [
            {
              "name": "name",
              "type": "string",
              "internalType": "string"
            },
            {
              "name": "userAddress",
              "type": "address",
              "internalType": "address"
            },
            {
              "name": "role",
              "type": "uint8",
              "internalType": "enum DigitalCertificates.UserRole"
            },
            {
              "name": "isSuspended",
              "type": "bool",
              "internalType": "bool"
            }
          ]
        }
      ],
      "stateMutability": "view"
    },
    {
      "type": "function",
      "name": "getRegulatorByAddress",
      "inputs": [
        {
          "name": "_regulator",
          "type": "address",
          "internalType": "address"
        }
      ],
      "outputs": [
        {
          "name": "name",
          "type": "string",
          "internalType": "string"
        },
        {
          "name": "regulator",
          "type": "address",
          "internalType": "address"
        },
        {
          "name": "role",
          "type": "uint8",
          "internalType": "enum DigitalCertificates.UserRole"
        },
        {
          "name": "isSuspended",
          "type": "bool",
          "internalType": "bool"
        }
      ],
      "stateMutability": "view"
    },
    {
      "type": "function",
      "name": "issueCertificate",
      "inputs": [
        {
          "name": "_file",
          "type": "string",
          "internalType": "string"
        },
        {
          "name": "_fileType",
          "type": "string",
          "internalType": "string"
        },
        {
          "name": "_graduateAddress",
          "type": "address",
          "internalType": "address"
        }
      ],
      "outputs": [],
      "stateMutability": "nonpayable"
    },
    {
      "type": "function",
      "name": "issuersByRegulator",
      "inputs": [
        {
          "name": "",
          "type": "address",
          "internalType": "address"
        },
        {
          "name": "",
          "type": "uint256",
          "internalType": "uint256"
        }
      ],
      "outputs": [
        {
          "name": "",
          "type": "address",
          "internalType": "address"
        }
      ],
      "stateMutability": "view"
    },
    {
      "type": "function",
      "name": "registerIssuer",
      "inputs": [
        {
          "name": "_issuer",
          "type": "address",
          "internalType": "address"
        },
        {
          "name": "_name",
          "type": "string",
          "internalType": "string"
        }
      ],
      "outputs": [],
      "stateMutability": "nonpayable"
    },
    {
      "type": "function",
      "name": "registerRegulator",
      "inputs": [
        {
          "name": "_regulator",
          "type": "address",
          "internalType": "address"
        },
        {
          "name": "_name",
          "type": "string",
          "internalType": "string"
        }
      ],
      "outputs": [],
      "stateMutability": "nonpayable"
    },
    {
      "type": "function",
      "name": "registerWallet",
      "inputs": [
        {
          "name": "_userAddress",
          "type": "address",
          "internalType": "address"
        },
        {
          "name": "_name",
          "type": "string",
          "internalType": "string"
        },
        {
          "name": "_role",
          "type": "uint8",
          "internalType": "enum DigitalCertificates.UserRole"
        }
      ],
      "outputs": [],
      "stateMutability": "nonpayable"
    },
    {
      "type": "function",
      "name": "regulators",
      "inputs": [
        {
          "name": "",
          "type": "uint256",
          "internalType": "uint256"
        }
      ],
      "outputs": [
        {
          "name": "",
          "type": "address",
          "internalType": "address"
        }
      ],
      "stateMutability": "view"
    },
    {
      "type": "function",
      "name": "revokeCertificate",
      "inputs": [
        {
          "name": "_file",
          "type": "string",
          "internalType": "string"
        },
        {
          "name": "_isValid",
          "type": "bool",
          "internalType": "bool"
        }
      ],
      "outputs": [],
      "stateMutability": "nonpayable"
    },
    {
      "type": "function",
      "name": "revokeIssuer",
      "inputs": [
        {
          "name": "_issuer",
          "type": "address",
          "internalType": "address"
        },
        {
          "name": "_isSuspended",
          "type": "bool",
          "internalType": "bool"
        }
      ],
      "outputs": [],
      "stateMutability": "nonpayable"
    },
    {
      "type": "function",
      "name": "revokeRegulator",
      "inputs": [
        {
          "name": "_regulator",
          "type": "address",
          "internalType": "address"
        },
        {
          "name": "_isSuspended",
          "type": "bool",
          "internalType": "bool"
        }
      ],
      "outputs": [],
      "stateMutability": "nonpayable"
    },
    {
      "type": "function",
      "name": "users",
      "inputs": [
        {
          "name": "",
          "type": "address",
          "internalType": "address"
        }
      ],
      "outputs": [
        {
          "name": "name",
          "type": "string",
          "internalType": "string"
        },
        {
          "name": "userAddress",
          "type": "address",
          "internalType": "address"
        },
        {
          "name": "role",
          "type": "uint8",
          "internalType": "enum DigitalCertificates.UserRole"
        },
        {
          "name": "isSuspended",
          "type": "bool",
          "internalType": "bool"
        }
      ],
      "stateMutability": "view"
    },
    {
      "type": "function",
      "name": "verifyCertificate",
      "inputs": [
        {
          "name": "_file",
          "type": "string",
          "internalType": "string"
        }
      ],
      "outputs": [
        {
          "name": "",
          "type": "bool",
          "internalType": "bool"
        }
      ],
      "stateMutability": "view"
    },
    {
      "type": "event",
      "name": "CertificateIssued",
      "inputs": [
        {
          "name": "file",
          "type": "string",
          "indexed": false,
          "internalType": "string"
        },
        {
          "name": "issuer",
          "type": "address",
          "indexed": false,
          "internalType": "address"
        },
        {
          "name": "graduateAddress",
          "type": "address",
          "indexed": false,
          "internalType": "address"
        }
      ],
      "anonymous": false
    },
    {
      "type": "event",
      "name": "CertificateRevoked",
      "inputs": [
        {
          "name": "file",
          "type": "string",
          "indexed": false,
          "internalType": "string"
        }
      ],
      "anonymous": false
    },
    {
      "type": "event",
      "name": "IssuerRegistered",
      "inputs": [
        {
          "name": "issuer",
          "type": "address",
          "indexed": false,
          "internalType": "address"
        },
        {
          "name": "name",
          "type": "string",
          "indexed": false,
          "internalType": "string"
        }
      ],
      "anonymous": false
    },
    {
      "type": "event",
      "name": "IssuerSuspended",
      "inputs": [
        {
          "name": "issuer",
          "type": "address",
          "indexed": false,
          "internalType": "address"
        }
      ],
      "anonymous": false
    },
    {
      "type": "event",
      "name": "RegulatorRegistered",
      "inputs": [
        {
          "name": "regulator",
          "type": "address",
          "indexed": false,
          "internalType": "address"
        },
        {
          "name": "name",
          "type": "string",
          "indexed": false,
          "internalType": "string"
        }
      ],
      "anonymous": false
    },
    {
      "type": "event",
      "name": "RegulatorSuspended",
      "inputs": [
        {
          "name": "regulator",
          "type": "address",
          "indexed": false,
          "internalType": "address"
        }
      ],
      "anonymous": false
    },
    {
      "type": "event",
      "name": "WalletRegistered",
      "inputs": [
        {
          "name": "userAddress",
          "type": "address",
          "indexed": true,
          "internalType": "address"
        },
        {
          "name": "name",
          "type": "string",
          "indexed": false,
          "internalType": "string"
        },
        {
          "name": "role",
          "type": "uint8",
          "indexed": false,
          "internalType": "enum DigitalCertificates.UserRole"
        }
      ],
      "anonymous": false
    }
  ],
  "bytecode": {
    "object": "0x608060405234801561001057600080fd5b506121a5806100206000396000f3fe608060405234801561001057600080fd5b50600436106101215760003560e01c80638b23d875116100ad578063a87430ba11610071578063a87430ba1461028c578063b0d4f7261461029f578063b24b83db146102b2578063f31d7ceb146102c5578063feef6714146102d857600080fd5b80638b23d8751461020d5780638dd0acb2146102305780638f2b91ea1461024357806391ee002014610266578063a5fd5a001461027957600080fd5b80635f8818d0116100f45780635f8818d0146101a4578063703c7cab146101c7578063784cb85b146101e757806387089176146101a457806388b6acd0146101fa57600080fd5b806312501f44146101265780631b2c805c1461013b578063395680d81461016457806353986e7514610179575b600080fd5b610139610134366004611b12565b6102eb565b005b61014e610149366004611b86565b61041c565b60405161015b9190611c0c565b60405180910390f35b61016c6104d5565b60405161015b9190611c5e565b61018c610187366004611d00565b6106c8565b6040516001600160a01b03909116815260200161015b565b6101b76101b2366004611d19565b6106f2565b60405161015b9493929190611d34565b6101da6101d5366004611d19565b61083c565b60405161015b9190611d76565b6101396101f5366004611e1e565b610af2565b61018c610208366004611b86565b610bf2565b61022061021b366004611e6c565b610c2a565b604051901515815260200161015b565b61013961023e366004611ea9565b610c60565b610256610251366004611e6c565b610d8f565b60405161015b9493929190611ef7565b610139610274366004611f3e565b610ee2565b61016c610287366004611d19565b610fc7565b6101b761029a366004611d19565b611229565b6101396102ad366004611f68565b6112ec565b6101396102c0366004611f3e565b61147b565b6101396102d3366004611ea9565b611560565b6101da6102e6366004611d19565b61169f565b6040518060800160405280848152602001838152602001826001600160a01b03168152602001600115158152506001846040516103289190611fce565b908152602001604051809103902060008201518160000190805190602001906103529291906119ba565b50602082810151805161036b92600185019201906119ba565b50604082810151600290920180546060909401511515600160a01b026001600160a81b03199094166001600160a01b03909316929092179290921790553360009081526004602090815291812080546001810182559082529082902085516103db939190920191908601906119ba565b507fc2c609b4c31b0c752f6a8691bfa92d3bb7db975421b76c586f8d1963a44c28f783338360405161040f93929190611fea565b60405180910390a1505050565b6004602052816000526040600020818154811061043857600080fd5b906000526020600020016000915091505080546104549061201d565b80601f01602080910402602001604051908101604052809291908181526020018280546104809061201d565b80156104cd5780601f106104a2576101008083540402835291602001916104cd565b820191906000526020600020905b8154815290600101906020018083116104b057829003601f168201915b505050505081565b60025460609060009067ffffffffffffffff8111156104f6576104f6611a53565b60405190808252806020026020018201604052801561054957816020015b604080516080810182526060808252600060208084018290529383018190529082015282526000199092019101816105145790505b50905060005b6002548110156106c2576000806002838154811061056f5761056f612051565b60009182526020808320909101546001600160a01b0316835282019290925260409081019091208151608081019092528054829082906105ae9061201d565b80601f01602080910402602001604051908101604052809291908181526020018280546105da9061201d565b80156106275780601f106105fc57610100808354040283529160200191610627565b820191906000526020600020905b81548152906001019060200180831161060a57829003601f168201915b505050918352505060018201546001600160a01b0381166020830152604090910190600160a01b900460ff16600581111561066457610664611c26565b600581111561067557610675611c26565b815260019190910154600160a81b900460ff16151560209091015282518390839081106106a4576106a4612051565b602002602001018190525080806106ba90612067565b91505061054f565b50919050565b600281815481106106d857600080fd5b6000918252602090912001546001600160a01b0316905081565b6060600080600080600080876001600160a01b03166001600160a01b031681526020019081526020016000206040518060800160405290816000820180546107399061201d565b80601f01602080910402602001604051908101604052809291908181526020018280546107659061201d565b80156107b25780601f10610787576101008083540402835291602001916107b2565b820191906000526020600020905b81548152906001019060200180831161079557829003601f168201915b505050918352505060018201546001600160a01b0381166020830152604090910190600160a01b900460ff1660058111156107ef576107ef611c26565b600581111561080057610800611c26565b815260019190910154600160a81b900460ff16151560209182015281519082015160408301516060909301519199909850919650945092505050565b6001600160a01b0381166000908152600460205260408120546060919067ffffffffffffffff81111561087157610871611a53565b6040519080825280602002602001820160405280156108c657816020015b60408051608081018252606080825260208201819052600092820183905281019190915281526020019060019003908161088f5790505b5090506000805b6001600160a01b038516600090815260046020526040902054811015610ae9576001600160a01b03851660009081526004602052604081208054600191908490811061091b5761091b612051565b90600052602060002001604051610932919061208e565b908152602001604051809103902060405180608001604052908160008201805461095b9061201d565b80601f01602080910402602001604051908101604052809291908181526020018280546109879061201d565b80156109d45780601f106109a9576101008083540402835291602001916109d4565b820191906000526020600020905b8154815290600101906020018083116109b757829003601f168201915b505050505081526020016001820180546109ed9061201d565b80601f0160208091040260200160405190810160405280929190818152602001828054610a199061201d565b8015610a665780601f10610a3b57610100808354040283529160200191610a66565b820191906000526020600020905b815481529060010190602001808311610a4957829003601f168201915b5050509183525050600291909101546001600160a01b038082166020840152600160a01b90910460ff16151560409283015290820151919250878116911603610ad65780848481518110610abc57610abc612051565b60200260200101819052508280610ad290612067565b9350505b5080610ae181612067565b9150506108cd565b50909392505050565b60006001600160a01b0316600183604051610b0d9190611fce565b908152604051908190036020019020600201546001600160a01b031603610b7b5760405162461bcd60e51b815260206004820152601a60248201527f436572746966696361746520646f6573206e6f7420657869737400000000000060448201526064015b60405180910390fd5b80600183604051610b8c9190611fce565b9081526040519081900360200181206002018054921515600160a01b0260ff60a01b19909316929092179091557f266095b5af7e2323760fef151f1d78896740cd2cc1b73a6357ff9e4c3fdae74090610be6908490611c0c565b60405180910390a15050565b60036020528160005260406000208181548110610c0e57600080fd5b6000918252602090912001546001600160a01b03169150829050565b6000600182604051610c3c9190611fce565b9081526040519081900360200190206002015460ff600160a01b9091041692915050565b604080516080810182528281526001600160a01b03841660208083018290526003838501526000606084018190529182528181529290208151805192939192610cac92849201906119ba565b5060208201516001820180546001600160a01b039092166001600160a01b03198316811782556040850151926001600160a81b03191617600160a01b836005811115610cfa57610cfa611c26565b0217905550606091909101516001918201805460ff60a81b1916600160a81b92151592909202919091179055336000908152600360209081526040808320805494850181558352912090910180546001600160a01b0319166001600160a01b038516179055517fc0e782e5ce31b3a8ed34a04353667fa795030402831742c8a4b938c2c96ef03390610be69084908490612129565b8051602081830181018051600182529282019190930120915280548190610db59061201d565b80601f0160208091040260200160405190810160405280929190818152602001828054610de19061201d565b8015610e2e5780601f10610e0357610100808354040283529160200191610e2e565b820191906000526020600020905b815481529060010190602001808311610e1157829003601f168201915b505050505090806001018054610e439061201d565b80601f0160208091040260200160405190810160405280929190818152602001828054610e6f9061201d565b8015610ebc5780601f10610e9157610100808354040283529160200191610ebc565b820191906000526020600020905b815481529060010190602001808311610e9f57829003601f168201915b505050600290930154919250506001600160a01b0381169060ff600160a01b9091041684565b60036001600160a01b038316600090815260208190526040902060010154600160a01b900460ff166005811115610f1b57610f1b611c26565b14610f685760405162461bcd60e51b815260206004820152601860248201527f41646472657373206973206e6f7420616e2069737375657200000000000000006044820152606401610b72565b6001600160a01b03821660008181526020818152604091829020600101805460ff60a81b1916600160a81b8615150217905590519182527f0c0223513169ae4317ba95b02f37c5f1c0506475f1b46cdcfd29bf96b0f0c1139101610be6565b6001600160a01b038116600090815260036020908152604080832080548251818502810185019093528083526060949383018282801561103057602002820191906000526020600020905b81546001600160a01b03168152600190910190602001808311611012575b505050505090506000815167ffffffffffffffff81111561105357611053611a53565b6040519080825280602002602001820160405280156110a657816020015b604080516080810182526060808252600060208084018290529383018190529082015282526000199092019101816110715790505b50905060005b8251811015611221576000808483815181106110ca576110ca612051565b60200260200101516001600160a01b03166001600160a01b0316815260200190815260200160002060405180608001604052908160008201805461110d9061201d565b80601f01602080910402602001604051908101604052809291908181526020018280546111399061201d565b80156111865780601f1061115b57610100808354040283529160200191611186565b820191906000526020600020905b81548152906001019060200180831161116957829003601f168201915b505050918352505060018201546001600160a01b0381166020830152604090910190600160a01b900460ff1660058111156111c3576111c3611c26565b60058111156111d4576111d4611c26565b815260019190910154600160a81b900460ff161515602090910152825183908390811061120357611203612051565b6020026020010181905250808061121990612067565b9150506110ac565b509392505050565b6000602081905290815260409020805481906112449061201d565b80601f01602080910402602001604051908101604052809291908181526020018280546112709061201d565b80156112bd5780601f10611292576101008083540402835291602001916112bd565b820191906000526020600020905b8154815290600101906020018083116112a057829003601f168201915b505050600190930154919250506001600160a01b0381169060ff600160a01b8204811691600160a81b90041684565b6001600160a01b0383811660009081526020819052604090206001015416156113575760405162461bcd60e51b815260206004820152601760248201527f5573657220616c726561647920726567697374657265640000000000000000006044820152606401610b72565b6040518060800160405280838152602001846001600160a01b0316815260200182600581111561138957611389611c26565b8152600060209182018190526001600160a01b0386168152808252604090208251805191926113bd928492909101906119ba565b5060208201516001820180546001600160a01b039092166001600160a01b03198316811782556040850151926001600160a81b03191617600160a01b83600581111561140b5761140b611c26565b021790555060608201518160010160156101000a81548160ff021916908315150217905550905050826001600160a01b03167f1d03fc6283c1524bc7caf694311bc92cb9be6bc39b6f307241bad933827ddac5838360405161146e92919061214d565b60405180910390a2505050565b60026001600160a01b038316600090815260208190526040902060010154600160a01b900460ff1660058111156114b4576114b4611c26565b146115015760405162461bcd60e51b815260206004820152601a60248201527f41646472657373206973206e6f74206120726567756c61746f720000000000006044820152606401610b72565b6001600160a01b03821660008181526020818152604091829020600101805460ff60a81b1916600160a81b8615150217905590519182527f58a1605f3a6d027a2d6902cfba5b6359b26c5ec1f9b72eb6a20a98aa823b1efe9101610be6565b604080516080810182528281526001600160a01b038416602080830182905260028385015260006060840181905291825281815292902081518051929391926115ac92849201906119ba565b5060208201516001820180546001600160a01b039092166001600160a01b03198316811782556040850151926001600160a81b03191617600160a01b8360058111156115fa576115fa611c26565b0217905550606091909101516001918201805460ff60a81b1916600160a81b921515929092029190911790556002805491820181556000527f405787fa12a823e0f2b7631cc41b3ba8828b3321ca811111fa75cd3aa3bb5ace0180546001600160a01b0319166001600160a01b0384161790556040517fa2c12a8021c2edacab839943a67a363d32c57dd3f300a3907c0aebb421269c1490610be69084908490612129565b6001600160a01b0381166000908152600460209081526040808320805482518185028101850190935280835260609493849084015b828210156117805783829060005260206000200180546116f39061201d565b80601f016020809104026020016040519081016040528092919081815260200182805461171f9061201d565b801561176c5780601f106117415761010080835404028352916020019161176c565b820191906000526020600020905b81548152906001019060200180831161174f57829003601f168201915b5050505050815260200190600101906116d4565b5050505090506000815167ffffffffffffffff8111156117a2576117a2611a53565b6040519080825280602002602001820160405280156117f757816020015b6040805160808101825260608082526020820181905260009282018390528101919091528152602001906001900390816117c05790505b50905060005b825181101561122157600183828151811061181a5761181a612051565b602002602001015160405161182f9190611fce565b90815260200160405180910390206040518060800160405290816000820180546118589061201d565b80601f01602080910402602001604051908101604052809291908181526020018280546118849061201d565b80156118d15780601f106118a6576101008083540402835291602001916118d1565b820191906000526020600020905b8154815290600101906020018083116118b457829003601f168201915b505050505081526020016001820180546118ea9061201d565b80601f01602080910402602001604051908101604052809291908181526020018280546119169061201d565b80156119635780601f1061193857610100808354040283529160200191611963565b820191906000526020600020905b81548152906001019060200180831161194657829003601f168201915b5050509183525050600291909101546001600160a01b0381166020830152600160a01b900460ff16151560409091015282518390839081106119a7576119a7612051565b60209081029190910101526001016117fd565b8280546119c69061201d565b90600052602060002090601f0160209004810192826119e85760008555611a2e565b82601f10611a0157805160ff1916838001178555611a2e565b82800160010185558215611a2e579182015b82811115611a2e578251825591602001919060010190611a13565b50611a3a929150611a3e565b5090565b5b80821115611a3a5760008155600101611a3f565b634e487b7160e01b600052604160045260246000fd5b600082601f830112611a7a57600080fd5b813567ffffffffffffffff80821115611a9557611a95611a53565b604051601f8301601f19908116603f01168101908282118183101715611abd57611abd611a53565b81604052838152866020858801011115611ad657600080fd5b836020870160208301376000602085830101528094505050505092915050565b80356001600160a01b0381168114611b0d57600080fd5b919050565b600080600060608486031215611b2757600080fd5b833567ffffffffffffffff80821115611b3f57600080fd5b611b4b87838801611a69565b94506020860135915080821115611b6157600080fd5b50611b6e86828701611a69565b925050611b7d60408501611af6565b90509250925092565b60008060408385031215611b9957600080fd5b611ba283611af6565b946020939093013593505050565b60005b83811015611bcb578181015183820152602001611bb3565b83811115611bda576000848401525b50505050565b60008151808452611bf8816020860160208601611bb0565b601f01601f19169290920160200192915050565b602081526000611c1f6020830184611be0565b9392505050565b634e487b7160e01b600052602160045260246000fd5b60068110611c5a57634e487b7160e01b600052602160045260246000fd5b9052565b60006020808301818452808551808352604092508286019150828160051b87010184880160005b83811015611cf257603f19898403018552815160808151818652611cab82870182611be0565b838b01516001600160a01b0316878c0152898401519092509050611cd189870182611c3c565b50606091820151151594909101939093529386019390860190600101611c85565b509098975050505050505050565b600060208284031215611d1257600080fd5b5035919050565b600060208284031215611d2b57600080fd5b611c1f82611af6565b608081526000611d476080830187611be0565b6001600160a01b03861660208401529050611d656040830185611c3c565b821515606083015295945050505050565b60006020808301818452808551808352604092508286019150828160051b87010184880160005b83811015611cf257603f19898403018552815160808151818652611dc382870182611be0565b915050888201518582038a870152611ddb8282611be0565b838a01516001600160a01b0316878b01526060938401511515939096019290925250509386019390860190600101611d9d565b80358015158114611b0d57600080fd5b60008060408385031215611e3157600080fd5b823567ffffffffffffffff811115611e4857600080fd5b611e5485828601611a69565b925050611e6360208401611e0e565b90509250929050565b600060208284031215611e7e57600080fd5b813567ffffffffffffffff811115611e9557600080fd5b611ea184828501611a69565b949350505050565b60008060408385031215611ebc57600080fd5b611ec583611af6565b9150602083013567ffffffffffffffff811115611ee157600080fd5b611eed85828601611a69565b9150509250929050565b608081526000611f0a6080830187611be0565b8281036020840152611f1c8187611be0565b6001600160a01b03959095166040840152505090151560609091015292915050565b60008060408385031215611f5157600080fd5b611f5a83611af6565b9150611e6360208401611e0e565b600080600060608486031215611f7d57600080fd5b611f8684611af6565b9250602084013567ffffffffffffffff811115611fa257600080fd5b611fae86828701611a69565b925050604084013560068110611fc357600080fd5b809150509250925092565b60008251611fe0818460208701611bb0565b9190910192915050565b606081526000611ffd6060830186611be0565b6001600160a01b0394851660208401529290931660409091015292915050565b600181811c9082168061203157607f821691505b6020821081036106c257634e487b7160e01b600052602260045260246000fd5b634e487b7160e01b600052603260045260246000fd5b60006001820161208757634e487b7160e01b600052601160045260246000fd5b5060010190565b600080835481600182811c9150808316806120aa57607f831692505b602080841082036120c957634e487b7160e01b86526022600452602486fd5b8180156120dd57600181146120ee5761211b565b60ff1986168952848901965061211b565b60008a81526020902060005b868110156121135781548b8201529085019083016120fa565b505084890196505b509498975050505050505050565b6001600160a01b0383168152604060208201819052600090611ea190830184611be0565b6040815260006121606040830185611be0565b9050611c1f6020830184611c3c56fea26469706673582212201407b0b598780433b4eaf1b665eaabea988dee8de2a1d99dcf8b46c269e52e9764736f6c634300080d0033",
    "linkReferences": {}
  },
  "methodIdentifiers": {
    "certificates(string)": "8f2b91ea",
    "certificatesByIssuer(address,uint256)": "1b2c805c",
    "getAllRegulators()": "395680d8",
    "getCertificateByGraduateAddress(address)": "703c7cab",
    "getCertificatesByIssuer(address)": "feef6714",
    "getIssuerByAddress(address)": "5f8818d0",
    "getIssuersByRegulator(address)": "a5fd5a00",
    "getRegulatorByAddress(address)": "87089176",
    "issueCertificate(string,string,address)": "12501f44",
    "issuersByRegulator(address,uint256)": "88b6acd0",
    "registerIssuer(address,string)": "8dd0acb2",
    "registerRegulator(address,string)": "f31d7ceb",
    "registerWallet(address,string,uint8)": "b0d4f726",
    "regulators(uint256)": "53986e75",
    "revokeCertificate(string,bool)": "784cb85b",
    "revokeIssuer(address,bool)": "91ee0020",
    "revokeRegulator(address,bool)": "b24b83db",
    "users(address)": "a87430ba",
    "verifyCertificate(string)": "8b23d875"
  },
  "id": 26
}